{
  "_format": "hh-sol-artifact-1",
  "contractName": "MyNFT",
  "sourceName": "contracts/MyNFT.sol",
  "abi": [
    {
      "inputs": [],
      "stateMutability": "nonpayable",
      "type": "constructor"
    },
    {
      "inputs": [],
      "name": "InvalidShortString",
      "type": "error"
    },
    {
      "inputs": [
        {
          "internalType": "string",
          "name": "str",
          "type": "string"
        }
      ],
      "name": "StringTooLong",
      "type": "error"
    },
    {
      "anonymous": false,
      "inputs": [
        {
          "indexed": true,
          "internalType": "address",
          "name": "owner",
          "type": "address"
        },
        {
          "indexed": true,
          "internalType": "address",
          "name": "approved",
          "type": "address"
        },
        {
          "indexed": true,
          "internalType": "uint256",
          "name": "tokenId",
          "type": "uint256"
        }
      ],
      "name": "Approval",
      "type": "event"
    },
    {
      "anonymous": false,
      "inputs": [
        {
          "indexed": true,
          "internalType": "address",
          "name": "owner",
          "type": "address"
        },
        {
          "indexed": true,
          "internalType": "address",
          "name": "operator",
          "type": "address"
        },
        {
          "indexed": false,
          "internalType": "bool",
          "name": "approved",
          "type": "bool"
        }
      ],
      "name": "ApprovalForAll",
      "type": "event"
    },
    {
      "anonymous": false,
      "inputs": [
        {
          "indexed": true,
          "internalType": "address",
          "name": "delegator",
          "type": "address"
        },
        {
          "indexed": true,
          "internalType": "address",
          "name": "fromDelegate",
          "type": "address"
        },
        {
          "indexed": true,
          "internalType": "address",
          "name": "toDelegate",
          "type": "address"
        }
      ],
      "name": "DelegateChanged",
      "type": "event"
    },
    {
      "anonymous": false,
      "inputs": [
        {
          "indexed": true,
          "internalType": "address",
          "name": "delegate",
          "type": "address"
        },
        {
          "indexed": false,
          "internalType": "uint256",
          "name": "previousBalance",
          "type": "uint256"
        },
        {
          "indexed": false,
          "internalType": "uint256",
          "name": "newBalance",
          "type": "uint256"
        }
      ],
      "name": "DelegateVotesChanged",
      "type": "event"
    },
    {
      "anonymous": false,
      "inputs": [],
      "name": "EIP712DomainChanged",
      "type": "event"
    },
    {
      "anonymous": false,
      "inputs": [
        {
          "indexed": true,
          "internalType": "bytes32",
          "name": "role",
          "type": "bytes32"
        },
        {
          "indexed": true,
          "internalType": "bytes32",
          "name": "previousAdminRole",
          "type": "bytes32"
        },
        {
          "indexed": true,
          "internalType": "bytes32",
          "name": "newAdminRole",
          "type": "bytes32"
        }
      ],
      "name": "RoleAdminChanged",
      "type": "event"
    },
    {
      "anonymous": false,
      "inputs": [
        {
          "indexed": true,
          "internalType": "bytes32",
          "name": "role",
          "type": "bytes32"
        },
        {
          "indexed": true,
          "internalType": "address",
          "name": "account",
          "type": "address"
        },
        {
          "indexed": true,
          "internalType": "address",
          "name": "sender",
          "type": "address"
        }
      ],
      "name": "RoleGranted",
      "type": "event"
    },
    {
      "anonymous": false,
      "inputs": [
        {
          "indexed": true,
          "internalType": "bytes32",
          "name": "role",
          "type": "bytes32"
        },
        {
          "indexed": true,
          "internalType": "address",
          "name": "account",
          "type": "address"
        },
        {
          "indexed": true,
          "internalType": "address",
          "name": "sender",
          "type": "address"
        }
      ],
      "name": "RoleRevoked",
      "type": "event"
    },
    {
      "anonymous": false,
      "inputs": [
        {
          "indexed": true,
          "internalType": "address",
          "name": "from",
          "type": "address"
        },
        {
          "indexed": true,
          "internalType": "address",
          "name": "to",
          "type": "address"
        },
        {
          "indexed": true,
          "internalType": "uint256",
          "name": "tokenId",
          "type": "uint256"
        }
      ],
      "name": "Transfer",
      "type": "event"
    },
    {
      "inputs": [],
      "name": "CLOCK_MODE",
      "outputs": [
        {
          "internalType": "string",
          "name": "",
          "type": "string"
        }
      ],
      "stateMutability": "view",
      "type": "function"
    },
    {
      "inputs": [],
      "name": "DEFAULT_ADMIN_ROLE",
      "outputs": [
        {
          "internalType": "bytes32",
          "name": "",
          "type": "bytes32"
        }
      ],
      "stateMutability": "view",
      "type": "function"
    },
    {
      "inputs": [],
      "name": "DOMAIN_SEPARATOR",
      "outputs": [
        {
          "internalType": "bytes32",
          "name": "",
          "type": "bytes32"
        }
      ],
      "stateMutability": "view",
      "type": "function"
    },
    {
      "inputs": [],
      "name": "MINTER_ROLE",
      "outputs": [
        {
          "internalType": "bytes32",
          "name": "",
          "type": "bytes32"
        }
      ],
      "stateMutability": "view",
      "type": "function"
    },
    {
      "inputs": [
        {
          "internalType": "address",
          "name": "to",
          "type": "address"
        },
        {
          "internalType": "uint256",
          "name": "tokenId",
          "type": "uint256"
        }
      ],
      "name": "approve",
      "outputs": [],
      "stateMutability": "nonpayable",
      "type": "function"
    },
    {
      "inputs": [
        {
          "internalType": "address",
          "name": "owner",
          "type": "address"
        }
      ],
      "name": "balanceOf",
      "outputs": [
        {
          "internalType": "uint256",
          "name": "",
          "type": "uint256"
        }
      ],
      "stateMutability": "view",
      "type": "function"
    },
    {
      "inputs": [
        {
          "internalType": "uint256",
          "name": "tokenId",
          "type": "uint256"
        }
      ],
      "name": "burn",
      "outputs": [],
      "stateMutability": "nonpayable",
      "type": "function"
    },
    {
      "inputs": [],
      "name": "clock",
      "outputs": [
        {
          "internalType": "uint48",
          "name": "",
          "type": "uint48"
        }
      ],
      "stateMutability": "view",
      "type": "function"
    },
    {
      "inputs": [
        {
          "internalType": "address",
          "name": "delegatee",
          "type": "address"
        }
      ],
      "name": "delegate",
      "outputs": [],
      "stateMutability": "nonpayable",
      "type": "function"
    },
    {
      "inputs": [
        {
          "internalType": "address",
          "name": "delegatee",
          "type": "address"
        },
        {
          "internalType": "uint256",
          "name": "nonce",
          "type": "uint256"
        },
        {
          "internalType": "uint256",
          "name": "expiry",
          "type": "uint256"
        },
        {
          "internalType": "uint8",
          "name": "v",
          "type": "uint8"
        },
        {
          "internalType": "bytes32",
          "name": "r",
          "type": "bytes32"
        },
        {
          "internalType": "bytes32",
          "name": "s",
          "type": "bytes32"
        }
      ],
      "name": "delegateBySig",
      "outputs": [],
      "stateMutability": "nonpayable",
      "type": "function"
    },
    {
      "inputs": [
        {
          "internalType": "address",
          "name": "account",
          "type": "address"
        }
      ],
      "name": "delegates",
      "outputs": [
        {
          "internalType": "address",
          "name": "",
          "type": "address"
        }
      ],
      "stateMutability": "view",
      "type": "function"
    },
    {
      "inputs": [],
      "name": "eip712Domain",
      "outputs": [
        {
          "internalType": "bytes1",
          "name": "fields",
          "type": "bytes1"
        },
        {
          "internalType": "string",
          "name": "name",
          "type": "string"
        },
        {
          "internalType": "string",
          "name": "version",
          "type": "string"
        },
        {
          "internalType": "uint256",
          "name": "chainId",
          "type": "uint256"
        },
        {
          "internalType": "address",
          "name": "verifyingContract",
          "type": "address"
        },
        {
          "internalType": "bytes32",
          "name": "salt",
          "type": "bytes32"
        },
        {
          "internalType": "uint256[]",
          "name": "extensions",
          "type": "uint256[]"
        }
      ],
      "stateMutability": "view",
      "type": "function"
    },
    {
      "inputs": [
        {
          "internalType": "uint256",
          "name": "tokenId",
          "type": "uint256"
        }
      ],
      "name": "getApproved",
      "outputs": [
        {
          "internalType": "address",
          "name": "",
          "type": "address"
        }
      ],
      "stateMutability": "view",
      "type": "function"
    },
    {
      "inputs": [],
      "name": "getNextTokenId",
      "outputs": [
        {
          "internalType": "uint256",
          "name": "",
          "type": "uint256"
        }
      ],
      "stateMutability": "view",
      "type": "function"
    },
    {
      "inputs": [
        {
          "internalType": "uint256",
          "name": "timepoint",
          "type": "uint256"
        }
      ],
      "name": "getPastTotalSupply",
      "outputs": [
        {
          "internalType": "uint256",
          "name": "",
          "type": "uint256"
        }
      ],
      "stateMutability": "view",
      "type": "function"
    },
    {
      "inputs": [
        {
          "internalType": "address",
          "name": "account",
          "type": "address"
        },
        {
          "internalType": "uint256",
          "name": "timepoint",
          "type": "uint256"
        }
      ],
      "name": "getPastVotes",
      "outputs": [
        {
          "internalType": "uint256",
          "name": "",
          "type": "uint256"
        }
      ],
      "stateMutability": "view",
      "type": "function"
    },
    {
      "inputs": [
        {
          "internalType": "bytes32",
          "name": "role",
          "type": "bytes32"
        }
      ],
      "name": "getRoleAdmin",
      "outputs": [
        {
          "internalType": "bytes32",
          "name": "",
          "type": "bytes32"
        }
      ],
      "stateMutability": "view",
      "type": "function"
    },
    {
      "inputs": [
        {
          "internalType": "address",
          "name": "account",
          "type": "address"
        }
      ],
      "name": "getVotes",
      "outputs": [
        {
          "internalType": "uint256",
          "name": "",
          "type": "uint256"
        }
      ],
      "stateMutability": "view",
      "type": "function"
    },
    {
      "inputs": [
        {
          "internalType": "bytes32",
          "name": "role",
          "type": "bytes32"
        },
        {
          "internalType": "address",
          "name": "account",
          "type": "address"
        }
      ],
      "name": "grantRole",
      "outputs": [],
      "stateMutability": "nonpayable",
      "type": "function"
    },
    {
      "inputs": [
        {
          "internalType": "bytes32",
          "name": "role",
          "type": "bytes32"
        },
        {
          "internalType": "address",
          "name": "account",
          "type": "address"
        }
      ],
      "name": "hasRole",
      "outputs": [
        {
          "internalType": "bool",
          "name": "",
          "type": "bool"
        }
      ],
      "stateMutability": "view",
      "type": "function"
    },
    {
      "inputs": [
        {
          "internalType": "address",
          "name": "owner",
          "type": "address"
        },
        {
          "internalType": "address",
          "name": "operator",
          "type": "address"
        }
      ],
      "name": "isApprovedForAll",
      "outputs": [
        {
          "internalType": "bool",
          "name": "",
          "type": "bool"
        }
      ],
      "stateMutability": "view",
      "type": "function"
    },
    {
      "inputs": [],
      "name": "name",
      "outputs": [
        {
          "internalType": "string",
          "name": "",
          "type": "string"
        }
      ],
      "stateMutability": "view",
      "type": "function"
    },
    {
      "inputs": [
        {
          "internalType": "address",
          "name": "owner",
          "type": "address"
        }
      ],
      "name": "nonces",
      "outputs": [
        {
          "internalType": "uint256",
          "name": "",
          "type": "uint256"
        }
      ],
      "stateMutability": "view",
      "type": "function"
    },
    {
      "inputs": [
        {
          "internalType": "uint256",
          "name": "tokenId",
          "type": "uint256"
        }
      ],
      "name": "ownerOf",
      "outputs": [
        {
          "internalType": "address",
          "name": "",
          "type": "address"
        }
      ],
      "stateMutability": "view",
      "type": "function"
    },
    {
      "inputs": [
        {
          "internalType": "bytes32",
          "name": "role",
          "type": "bytes32"
        },
        {
          "internalType": "address",
          "name": "account",
          "type": "address"
        }
      ],
      "name": "renounceRole",
      "outputs": [],
      "stateMutability": "nonpayable",
      "type": "function"
    },
    {
      "inputs": [
        {
          "internalType": "bytes32",
          "name": "role",
          "type": "bytes32"
        },
        {
          "internalType": "address",
          "name": "account",
          "type": "address"
        }
      ],
      "name": "revokeRole",
      "outputs": [],
      "stateMutability": "nonpayable",
      "type": "function"
    },
    {
      "inputs": [
        {
          "internalType": "address",
          "name": "to",
          "type": "address"
        }
      ],
      "name": "safeMint",
      "outputs": [],
      "stateMutability": "nonpayable",
      "type": "function"
    },
    {
      "inputs": [
        {
          "internalType": "address",
          "name": "from",
          "type": "address"
        },
        {
          "internalType": "address",
          "name": "to",
          "type": "address"
        },
        {
          "internalType": "uint256",
          "name": "tokenId",
          "type": "uint256"
        }
      ],
      "name": "safeTransferFrom",
      "outputs": [],
      "stateMutability": "nonpayable",
      "type": "function"
    },
    {
      "inputs": [
        {
          "internalType": "address",
          "name": "from",
          "type": "address"
        },
        {
          "internalType": "address",
          "name": "to",
          "type": "address"
        },
        {
          "internalType": "uint256",
          "name": "tokenId",
          "type": "uint256"
        },
        {
          "internalType": "bytes",
          "name": "data",
          "type": "bytes"
        }
      ],
      "name": "safeTransferFrom",
      "outputs": [],
      "stateMutability": "nonpayable",
      "type": "function"
    },
    {
      "inputs": [
        {
          "internalType": "address",
          "name": "operator",
          "type": "address"
        },
        {
          "internalType": "bool",
          "name": "approved",
          "type": "bool"
        }
      ],
      "name": "setApprovalForAll",
      "outputs": [],
      "stateMutability": "nonpayable",
      "type": "function"
    },
    {
      "inputs": [
        {
          "internalType": "bytes4",
          "name": "interfaceId",
          "type": "bytes4"
        }
      ],
      "name": "supportsInterface",
      "outputs": [
        {
          "internalType": "bool",
          "name": "",
          "type": "bool"
        }
      ],
      "stateMutability": "view",
      "type": "function"
    },
    {
      "inputs": [],
      "name": "symbol",
      "outputs": [
        {
          "internalType": "string",
          "name": "",
          "type": "string"
        }
      ],
      "stateMutability": "view",
      "type": "function"
    },
    {
      "inputs": [
        {
          "internalType": "uint256",
          "name": "tokenId",
          "type": "uint256"
        }
      ],
      "name": "tokenURI",
      "outputs": [
        {
          "internalType": "string",
          "name": "",
          "type": "string"
        }
      ],
      "stateMutability": "view",
      "type": "function"
    },
    {
      "inputs": [
        {
          "internalType": "address",
          "name": "from",
          "type": "address"
        },
        {
          "internalType": "address",
          "name": "to",
          "type": "address"
        },
        {
          "internalType": "uint256",
          "name": "tokenId",
          "type": "uint256"
        }
      ],
      "name": "transferFrom",
      "outputs": [],
      "stateMutability": "nonpayable",
      "type": "function"
    }
  ],
  "bytecode": "0x6101606040526001600d553480156200001757600080fd5b506040518060400160405280600581526020017f4d794e46540000000000000000000000000000000000000000000000000000008152506040518060400160405280600181526020017f31000000000000000000000000000000000000000000000000000000000000008152506040518060400160405280600581526020017f4d794e46540000000000000000000000000000000000000000000000000000008152506040518060400160405280600581526020017f4d794e465400000000000000000000000000000000000000000000000000000081525081600090816200010191906200071e565b5080600190816200011391906200071e565b5050506200012c6006836200021360201b90919060201c565b61012081815250506200014a6007826200021360201b90919060201c565b6101408181525050818051906020012060e08181525050808051906020012061010081815250504660a08181525050620001896200026b60201b60201c565b608081815250503073ffffffffffffffffffffffffffffffffffffffff1660c08173ffffffffffffffffffffffffffffffffffffffff16815250505050620001db6000801b33620002c860201b60201c565b6200020d7f9f2df0fed2c77648de5860a4cc508cd0818c85b8b8a1ab4ceeef8d981c8956a633620002c860201b60201c565b62000a28565b600060208351101562000239576200023183620003ba60201b60201c565b905062000265565b826200024b836200042760201b60201c565b60000190816200025c91906200071e565b5060ff60001b90505b92915050565b60007f8b73c3c69bb8fe3d512ecc4cf759cc79239f7b179b0ffacaa9a75d522b39400f60e051610100514630604051602001620002ad95949392919062000876565b60405160208183030381529060405280519060200120905090565b620002da82826200043160201b60201c565b620003b6576001600c600084815260200190815260200160002060000160008373ffffffffffffffffffffffffffffffffffffffff1673ffffffffffffffffffffffffffffffffffffffff16815260200190815260200160002060006101000a81548160ff0219169083151502179055506200035b6200049c60201b60201c565b73ffffffffffffffffffffffffffffffffffffffff168173ffffffffffffffffffffffffffffffffffffffff16837f2f8788117e7eff1d82e926ec794901d17c78024a50270940304540a733656f0d60405160405180910390a45b5050565b600080829050601f815111156200040a57826040517f305a27a900000000000000000000000000000000000000000000000000000000815260040162000401919062000962565b60405180910390fd5b8051816200041890620009b8565b60001c1760001b915050919050565b6000819050919050565b6000600c600084815260200190815260200160002060000160008373ffffffffffffffffffffffffffffffffffffffff1673ffffffffffffffffffffffffffffffffffffffff16815260200190815260200160002060009054906101000a900460ff16905092915050565b600033905090565b600081519050919050565b7f4e487b7100000000000000000000000000000000000000000000000000000000600052604160045260246000fd5b7f4e487b7100000000000000000000000000000000000000000000000000000000600052602260045260246000fd5b600060028204905060018216806200052657607f821691505b6020821081036200053c576200053b620004de565b5b50919050565b60008190508160005260206000209050919050565b60006020601f8301049050919050565b600082821b905092915050565b600060088302620005a67fffffffffffffffffffffffffffffffffffffffffffffffffffffffffffffffff8262000567565b620005b2868362000567565b95508019841693508086168417925050509392505050565b6000819050919050565b6000819050919050565b6000620005ff620005f9620005f384620005ca565b620005d4565b620005ca565b9050919050565b6000819050919050565b6200061b83620005de565b620006336200062a8262000606565b84845462000574565b825550505050565b600090565b6200064a6200063b565b6200065781848462000610565b505050565b5b818110156200067f576200067360008262000640565b6001810190506200065d565b5050565b601f821115620006ce57620006988162000542565b620006a38462000557565b81016020851015620006b3578190505b620006cb620006c28562000557565b8301826200065c565b50505b505050565b600082821c905092915050565b6000620006f360001984600802620006d3565b1980831691505092915050565b60006200070e8383620006e0565b9150826002028217905092915050565b6200072982620004a4565b67ffffffffffffffff811115620007455762000744620004af565b5b6200075182546200050d565b6200075e82828562000683565b600060209050601f83116001811462000796576000841562000781578287015190505b6200078d858262000700565b865550620007fd565b601f198416620007a68662000542565b60005b82811015620007d057848901518255600182019150602085019450602081019050620007a9565b86831015620007f05784890151620007ec601f891682620006e0565b8355505b6001600288020188555050505b505050505050565b6000819050919050565b6200081a8162000805565b82525050565b6200082b81620005ca565b82525050565b600073ffffffffffffffffffffffffffffffffffffffff82169050919050565b60006200085e8262000831565b9050919050565b620008708162000851565b82525050565b600060a0820190506200088d60008301886200080f565b6200089c60208301876200080f565b620008ab60408301866200080f565b620008ba606083018562000820565b620008c9608083018462000865565b9695505050505050565b600082825260208201905092915050565b60005b8381101562000904578082015181840152602081019050620008e7565b60008484015250505050565b6000601f19601f8301169050919050565b60006200092e82620004a4565b6200093a8185620008d3565b93506200094c818560208601620008e4565b620009578162000910565b840191505092915050565b600060208201905081810360008301526200097e818462000921565b905092915050565b600081519050919050565b6000819050602082019050919050565b6000620009af825162000805565b80915050919050565b6000620009c58262000986565b82620009d18462000991565b9050620009de81620009a1565b9250602082101562000a215762000a1c7fffffffffffffffffffffffffffffffffffffffffffffffffffffffffffffffff8360200360080262000567565b831692505b5050919050565b60805160a05160c05160e0516101005161012051610140516158bf62000a836000396000610e9801526000610e64015260006126ab0152600061268a01526000611a3d01526000611a9301526000611abc01526158bf6000f3fe608060405234801561001057600080fd5b50600436106102065760003560e01c806370a082311161011a578063a217fddf116100ad578063c87b56dd1161007c578063c87b56dd14610627578063caa0f92a14610657578063d539139314610675578063d547741f14610693578063e985e9c5146106af57610206565b8063a217fddf146105b5578063a22cb465146105d3578063b88d4fde146105ef578063c3cda5201461060b57610206565b806391d14854116100e957806391d148541461051957806391ddadf41461054957806395d89b41146105675780639ab24eb01461058557610206565b806370a08231146104655780637ecebe001461049557806384b0196e146104c55780638e539e8c146104e957610206565b806336568abe1161019d57806342966c681161016c57806342966c68146103af5780634bf5d7e9146103cb578063587cde1e146103e95780635c19a95c146104195780636352211e1461043557610206565b806336568abe1461032b5780633a46b1a81461034757806340d097c31461037757806342842e0e1461039357610206565b806323b872dd116101d957806323b872dd146102a5578063248a9ca3146102c15780632f2ff15d146102f15780633644e5151461030d57610206565b806301ffc9a71461020b57806306fdde031461023b578063081812fc14610259578063095ea7b314610289575b600080fd5b61022560048036038101906102209190613dad565b6106df565b6040516102329190613df5565b60405180910390f35b6102436106f1565b6040516102509190613ea0565b60405180910390f35b610273600480360381019061026e9190613ef8565b610783565b6040516102809190613f66565b60405180910390f35b6102a3600480360381019061029e9190613fad565b6107c9565b005b6102bf60048036038101906102ba9190613fed565b6108e0565b005b6102db60048036038101906102d69190614076565b610940565b6040516102e891906140b2565b60405180910390f35b61030b600480360381019061030691906140cd565b610960565b005b610315610981565b60405161032291906140b2565b60405180910390f35b610345600480360381019061034091906140cd565b610990565b005b610361600480360381019061035c9190613fad565b610a13565b60405161036e919061411c565b60405180910390f35b610391600480360381019061038c9190614137565b610ae5565b005b6103ad60048036038101906103a89190613fed565b610b37565b005b6103c960048036038101906103c49190613ef8565b610b57565b005b6103d3610bb3565b6040516103e09190613ea0565b60405180910390f35b61040360048036038101906103fe9190614137565b610c41565b6040516104109190613f66565b60405180910390f35b610433600480360381019061042e9190614137565b610caa565b005b61044f600480360381019061044a9190613ef8565b610cc4565b60405161045c9190613f66565b60405180910390f35b61047f600480360381019061047a9190614137565b610d4a565b60405161048c919061411c565b60405180910390f35b6104af60048036038101906104aa9190614137565b610e01565b6040516104bc919061411c565b60405180910390f35b6104cd610e51565b6040516104e0979695949392919061425d565b60405180910390f35b61050360048036038101906104fe9190613ef8565b610f53565b604051610510919061411c565b60405180910390f35b610533600480360381019061052e91906140cd565b610fe7565b6040516105409190613df5565b60405180910390f35b610551611052565b60405161055e9190614302565b60405180910390f35b61056f611062565b60405161057c9190613ea0565b60405180910390f35b61059f600480360381019061059a9190614137565b6110f4565b6040516105ac919061411c565b60405180910390f35b6105bd611162565b6040516105ca91906140b2565b60405180910390f35b6105ed60048036038101906105e89190614349565b611169565b005b610609600480360381019061060491906144be565b61117f565b005b6106256004803603810190610620919061457a565b6111e1565b005b610641600480360381019061063c9190613ef8565b6112e5565b60405161064e9190613ea0565b60405180910390f35b61065f61134d565b60405161066c919061411c565b60405180910390f35b61067d611357565b60405161068a91906140b2565b60405180910390f35b6106ad60048036038101906106a891906140cd565b61137b565b005b6106c960048036038101906106c49190614607565b61139c565b6040516106d69190613df5565b60405180910390f35b60006106ea82611430565b9050919050565b60606000805461070090614676565b80601f016020809104026020016040519081016040528092919081815260200182805461072c90614676565b80156107795780601f1061074e57610100808354040283529160200191610779565b820191906000526020600020905b81548152906001019060200180831161075c57829003601f168201915b5050505050905090565b600061078e826114aa565b6004600083815260200190815260200160002060009054906101000a900473ffffffffffffffffffffffffffffffffffffffff169050919050565b60006107d482610cc4565b90508073ffffffffffffffffffffffffffffffffffffffff168373ffffffffffffffffffffffffffffffffffffffff1603610844576040517f08c379a000000000000000000000000000000000000000000000000000000000815260040161083b90614719565b60405180910390fd5b8073ffffffffffffffffffffffffffffffffffffffff166108636114f5565b73ffffffffffffffffffffffffffffffffffffffff16148061089257506108918161088c6114f5565b61139c565b5b6108d1576040517f08c379a00000000000000000000000000000000000000000000000000000000081526004016108c8906147ab565b60405180910390fd5b6108db83836114fd565b505050565b6108f16108eb6114f5565b826115b6565b610930576040517f08c379a00000000000000000000000000000000000000000000000000000000081526004016109279061483d565b60405180910390fd5b61093b83838361164b565b505050565b6000600c6000838152602001908152602001600020600101549050919050565b61096982610940565b61097281611944565b61097c8383611958565b505050565b600061098b611a39565b905090565b6109986114f5565b73ffffffffffffffffffffffffffffffffffffffff168173ffffffffffffffffffffffffffffffffffffffff1614610a05576040517f08c379a00000000000000000000000000000000000000000000000000000000081526004016109fc906148cf565b60405180910390fd5b610a0f8282611af0565b5050565b6000610a1d611052565b65ffffffffffff168210610a66576040517f08c379a0000000000000000000000000000000000000000000000000000000008152600401610a5d9061493b565b60405180910390fd5b610abf610a7283611bd2565b600960008673ffffffffffffffffffffffffffffffffffffffff1673ffffffffffffffffffffffffffffffffffffffff168152602001908152602001600020611c2590919063ffffffff16565b7bffffffffffffffffffffffffffffffffffffffffffffffffffffffff16905092915050565b7f9f2df0fed2c77648de5860a4cc508cd0818c85b8b8a1ab4ceeef8d981c8956a6610b0f81611944565b610b1b82600d54611d1b565b600d6000815480929190610b2e9061498a565b91905055505050565b610b528383836040518060200160405280600081525061117f565b505050565b610b68610b626114f5565b826115b6565b610ba7576040517f08c379a0000000000000000000000000000000000000000000000000000000008152600401610b9e9061483d565b60405180910390fd5b610bb081611d39565b50565b606043610bbe611052565b65ffffffffffff1614610c06576040517f08c379a0000000000000000000000000000000000000000000000000000000008152600401610bfd90614a1e565b60405180910390fd5b6040518060400160405280601d81526020017f6d6f64653d626c6f636b6e756d6265722666726f6d3d64656661756c74000000815250905090565b6000600860008373ffffffffffffffffffffffffffffffffffffffff1673ffffffffffffffffffffffffffffffffffffffff16815260200190815260200160002060009054906101000a900473ffffffffffffffffffffffffffffffffffffffff169050919050565b6000610cb46114f5565b9050610cc08183611e87565b5050565b600080610cd083611f9b565b9050600073ffffffffffffffffffffffffffffffffffffffff168173ffffffffffffffffffffffffffffffffffffffff1603610d41576040517f08c379a0000000000000000000000000000000000000000000000000000000008152600401610d3890614a8a565b60405180910390fd5b80915050919050565b60008073ffffffffffffffffffffffffffffffffffffffff168273ffffffffffffffffffffffffffffffffffffffff1603610dba576040517f08c379a0000000000000000000000000000000000000000000000000000000008152600401610db190614b1c565b60405180910390fd5b600360008373ffffffffffffffffffffffffffffffffffffffff1673ffffffffffffffffffffffffffffffffffffffff168152602001908152602001600020549050919050565b6000610e4a600b60008473ffffffffffffffffffffffffffffffffffffffff1673ffffffffffffffffffffffffffffffffffffffff168152602001908152602001600020611fd8565b9050919050565b600060608060008060006060610e9160067f0000000000000000000000000000000000000000000000000000000000000000611fe690919063ffffffff16565b610ec560077f0000000000000000000000000000000000000000000000000000000000000000611fe690919063ffffffff16565b46306000801b600067ffffffffffffffff811115610ee657610ee5614393565b5b604051908082528060200260200182016040528015610f145781602001602082028036833780820191505090505b507f0f00000000000000000000000000000000000000000000000000000000000000959493929190965096509650965096509650965090919293949596565b6000610f5d611052565b65ffffffffffff168210610fa6576040517f08c379a0000000000000000000000000000000000000000000000000000000008152600401610f9d9061493b565b60405180910390fd5b610fc2610fb283611bd2565b600a611c2590919063ffffffff16565b7bffffffffffffffffffffffffffffffffffffffffffffffffffffffff169050919050565b6000600c600084815260200190815260200160002060000160008373ffffffffffffffffffffffffffffffffffffffff1673ffffffffffffffffffffffffffffffffffffffff16815260200190815260200160002060009054906101000a900460ff16905092915050565b600061105d43612096565b905090565b60606001805461107190614676565b80601f016020809104026020016040519081016040528092919081815260200182805461109d90614676565b80156110ea5780601f106110bf576101008083540402835291602001916110ea565b820191906000526020600020905b8154815290600101906020018083116110cd57829003601f168201915b5050505050905090565b600061113d600960008473ffffffffffffffffffffffffffffffffffffffff1673ffffffffffffffffffffffffffffffffffffffff1681526020019081526020016000206120eb565b7bffffffffffffffffffffffffffffffffffffffffffffffffffffffff169050919050565b6000801b81565b61117b6111746114f5565b8383612155565b5050565b61119061118a6114f5565b836115b6565b6111cf576040517f08c379a00000000000000000000000000000000000000000000000000000000081526004016111c69061483d565b60405180910390fd5b6111db848484846122c1565b50505050565b83421115611224576040517f08c379a000000000000000000000000000000000000000000000000000000000815260040161121b90614b88565b60405180910390fd5b600061128661127e7fe48329057bfd03d55e49b547132e39cffd9c1820ad7b9d4c5307691425d15adf8989896040516020016112639493929190614ba8565b6040516020818303038152906040528051906020012061231d565b858585612337565b905061129181612362565b86146112d2576040517f08c379a00000000000000000000000000000000000000000000000000000000081526004016112c990614c39565b60405180910390fd5b6112dc8188611e87565b50505050505050565b60606112f0826114aa565b60006112fa6123c0565b9050600081511161131a5760405180602001604052806000815250611345565b80611324846123d7565b604051602001611335929190614c95565b6040516020818303038152906040525b915050919050565b6000600d54905090565b7f9f2df0fed2c77648de5860a4cc508cd0818c85b8b8a1ab4ceeef8d981c8956a681565b61138482610940565b61138d81611944565b6113978383611af0565b505050565b6000600560008473ffffffffffffffffffffffffffffffffffffffff1673ffffffffffffffffffffffffffffffffffffffff16815260200190815260200160002060008373ffffffffffffffffffffffffffffffffffffffff1673ffffffffffffffffffffffffffffffffffffffff16815260200190815260200160002060009054906101000a900460ff16905092915050565b60007f7965db0b000000000000000000000000000000000000000000000000000000007bffffffffffffffffffffffffffffffffffffffffffffffffffffffff1916827bffffffffffffffffffffffffffffffffffffffffffffffffffffffff191614806114a357506114a2826124a5565b5b9050919050565b6114b381612587565b6114f2576040517f08c379a00000000000000000000000000000000000000000000000000000000081526004016114e990614a8a565b60405180910390fd5b50565b600033905090565b816004600083815260200190815260200160002060006101000a81548173ffffffffffffffffffffffffffffffffffffffff021916908373ffffffffffffffffffffffffffffffffffffffff160217905550808273ffffffffffffffffffffffffffffffffffffffff1661157083610cc4565b73ffffffffffffffffffffffffffffffffffffffff167f8c5be1e5ebec7d5bd14f71427d1e84f3dd0314c0f7b2291e5b200ac8c7c3b92560405160405180910390a45050565b6000806115c283610cc4565b90508073ffffffffffffffffffffffffffffffffffffffff168473ffffffffffffffffffffffffffffffffffffffff1614806116045750611603818561139c565b5b8061164257508373ffffffffffffffffffffffffffffffffffffffff1661162a84610783565b73ffffffffffffffffffffffffffffffffffffffff16145b91505092915050565b8273ffffffffffffffffffffffffffffffffffffffff1661166b82610cc4565b73ffffffffffffffffffffffffffffffffffffffff16146116c1576040517f08c379a00000000000000000000000000000000000000000000000000000000081526004016116b890614d2b565b60405180910390fd5b600073ffffffffffffffffffffffffffffffffffffffff168273ffffffffffffffffffffffffffffffffffffffff1603611730576040517f08c379a000000000000000000000000000000000000000000000000000000000815260040161172790614dbd565b60405180910390fd5b61173d83838360016125c8565b8273ffffffffffffffffffffffffffffffffffffffff1661175d82610cc4565b73ffffffffffffffffffffffffffffffffffffffff16146117b3576040517f08c379a00000000000000000000000000000000000000000000000000000000081526004016117aa90614d2b565b60405180910390fd5b6004600082815260200190815260200160002060006101000a81549073ffffffffffffffffffffffffffffffffffffffff02191690556001600360008573ffffffffffffffffffffffffffffffffffffffff1673ffffffffffffffffffffffffffffffffffffffff168152602001908152602001600020600082825403925050819055506001600360008473ffffffffffffffffffffffffffffffffffffffff1673ffffffffffffffffffffffffffffffffffffffff16815260200190815260200160002060008282540192505081905550816002600083815260200190815260200160002060006101000a81548173ffffffffffffffffffffffffffffffffffffffff021916908373ffffffffffffffffffffffffffffffffffffffff160217905550808273ffffffffffffffffffffffffffffffffffffffff168473ffffffffffffffffffffffffffffffffffffffff167fddf252ad1be2c89b69c2b068fc378daa952ba7f163c4a11628f55a4df523b3ef60405160405180910390a461193f83838360016125ce565b505050565b611955816119506114f5565b6125e0565b50565b6119628282610fe7565b611a35576001600c600084815260200190815260200160002060000160008373ffffffffffffffffffffffffffffffffffffffff1673ffffffffffffffffffffffffffffffffffffffff16815260200190815260200160002060006101000a81548160ff0219169083151502179055506119da6114f5565b73ffffffffffffffffffffffffffffffffffffffff168173ffffffffffffffffffffffffffffffffffffffff16837f2f8788117e7eff1d82e926ec794901d17c78024a50270940304540a733656f0d60405160405180910390a45b5050565b60007f000000000000000000000000000000000000000000000000000000000000000073ffffffffffffffffffffffffffffffffffffffff163073ffffffffffffffffffffffffffffffffffffffff16148015611ab557507f000000000000000000000000000000000000000000000000000000000000000046145b15611ae2577f00000000000000000000000000000000000000000000000000000000000000009050611aed565b611aea612665565b90505b90565b611afa8282610fe7565b15611bce576000600c600084815260200190815260200160002060000160008373ffffffffffffffffffffffffffffffffffffffff1673ffffffffffffffffffffffffffffffffffffffff16815260200190815260200160002060006101000a81548160ff021916908315150217905550611b736114f5565b73ffffffffffffffffffffffffffffffffffffffff168173ffffffffffffffffffffffffffffffffffffffff16837ff6391f5c32d9c69d2a47ea670b442974b53935d1edc7fd64eb21e047a839171b60405160405180910390a45b5050565b600063ffffffff8016821115611c1d576040517f08c379a0000000000000000000000000000000000000000000000000000000008152600401611c1490614e4f565b60405180910390fd5b819050919050565b600080836000018054905090506000808290506005831115611ca7576000611c4c846126fb565b84611c579190614e6f565b9050611c6687600001826127f4565b60000160009054906101000a900463ffffffff1663ffffffff168663ffffffff161015611c9557809150611ca5565b600181611ca29190614ea3565b92505b505b6000611cb887600001878585612809565b905060008114611d0c57611cdb87600001600183611cd69190614e6f565b6127f4565b60000160049054906101000a90047bffffffffffffffffffffffffffffffffffffffffffffffffffffffff16611d0f565b60005b94505050505092915050565b611d3582826040518060200160405280600081525061287c565b5050565b6000611d4482610cc4565b9050611d548160008460016125c8565b611d5d82610cc4565b90506004600083815260200190815260200160002060006101000a81549073ffffffffffffffffffffffffffffffffffffffff02191690556001600360008373ffffffffffffffffffffffffffffffffffffffff1673ffffffffffffffffffffffffffffffffffffffff168152602001908152602001600020600082825403925050819055506002600083815260200190815260200160002060006101000a81549073ffffffffffffffffffffffffffffffffffffffff021916905581600073ffffffffffffffffffffffffffffffffffffffff168273ffffffffffffffffffffffffffffffffffffffff167fddf252ad1be2c89b69c2b068fc378daa952ba7f163c4a11628f55a4df523b3ef60405160405180910390a4611e838160008460016125ce565b5050565b6000611e9283610c41565b905081600860008573ffffffffffffffffffffffffffffffffffffffff1673ffffffffffffffffffffffffffffffffffffffff16815260200190815260200160002060006101000a81548173ffffffffffffffffffffffffffffffffffffffff021916908373ffffffffffffffffffffffffffffffffffffffff1602179055508173ffffffffffffffffffffffffffffffffffffffff168173ffffffffffffffffffffffffffffffffffffffff168473ffffffffffffffffffffffffffffffffffffffff167f3134e8a2e6d97e929a7e54011ea5485d7d196dd5f0ba4d4ef95803e8e3fc257f60405160405180910390a4611f968183611f91866128d7565b6128e9565b505050565b60006002600083815260200190815260200160002060009054906101000a900473ffffffffffffffffffffffffffffffffffffffff169050919050565b600081600001549050919050565b606060ff60001b831461200357611ffc83612b6a565b9050612090565b81805461200f90614676565b80601f016020809104026020016040519081016040528092919081815260200182805461203b90614676565b80156120885780601f1061205d57610100808354040283529160200191612088565b820191906000526020600020905b81548152906001019060200180831161206b57829003601f168201915b505050505090505b92915050565b600065ffffffffffff80168211156120e3576040517f08c379a00000000000000000000000000000000000000000000000000000000081526004016120da90614f49565b60405180910390fd5b819050919050565b600080826000018054905090506000811461214a57612119836000016001836121149190614e6f565b6127f4565b60000160049054906101000a90047bffffffffffffffffffffffffffffffffffffffffffffffffffffffff1661214d565b60005b915050919050565b8173ffffffffffffffffffffffffffffffffffffffff168373ffffffffffffffffffffffffffffffffffffffff16036121c3576040517f08c379a00000000000000000000000000000000000000000000000000000000081526004016121ba90614fb5565b60405180910390fd5b80600560008573ffffffffffffffffffffffffffffffffffffffff1673ffffffffffffffffffffffffffffffffffffffff16815260200190815260200160002060008473ffffffffffffffffffffffffffffffffffffffff1673ffffffffffffffffffffffffffffffffffffffff16815260200190815260200160002060006101000a81548160ff0219169083151502179055508173ffffffffffffffffffffffffffffffffffffffff168373ffffffffffffffffffffffffffffffffffffffff167f17307eab39ab6107e8899845ad3d59bd9653f200f220920489ca2b5937696c31836040516122b49190613df5565b60405180910390a3505050565b6122cc84848461164b565b6122d884848484612bde565b612317576040517f08c379a000000000000000000000000000000000000000000000000000000000815260040161230e90615047565b60405180910390fd5b50505050565b600061233061232a611a39565b83612d65565b9050919050565b600080600061234887878787612da6565b9150915061235581612e88565b8192505050949350505050565b600080600b60008473ffffffffffffffffffffffffffffffffffffffff1673ffffffffffffffffffffffffffffffffffffffff16815260200190815260200160002090506123af81611fd8565b91506123ba81612fee565b50919050565b606060405180602001604052806000815250905090565b6060600060016123e684613004565b01905060008167ffffffffffffffff81111561240557612404614393565b5b6040519080825280601f01601f1916602001820160405280156124375781602001600182028036833780820191505090505b509050600082602001820190505b60011561249a578080600190039150507f3031323334353637383961626364656600000000000000000000000000000000600a86061a8153600a858161248e5761248d615067565b5b04945060008503612445575b819350505050919050565b60007f80ac58cd000000000000000000000000000000000000000000000000000000007bffffffffffffffffffffffffffffffffffffffffffffffffffffffff1916827bffffffffffffffffffffffffffffffffffffffffffffffffffffffff1916148061257057507f5b5e139f000000000000000000000000000000000000000000000000000000007bffffffffffffffffffffffffffffffffffffffffffffffffffffffff1916827bffffffffffffffffffffffffffffffffffffffffffffffffffffffff1916145b80612580575061257f82613157565b5b9050919050565b60008073ffffffffffffffffffffffffffffffffffffffff166125a983611f9b565b73ffffffffffffffffffffffffffffffffffffffff1614159050919050565b50505050565b6125da848484846131c1565b50505050565b6125ea8282610fe7565b612661576125f7816131de565b6126058360001c602061320b565b60405160200161261692919061512e565b6040516020818303038152906040526040517f08c379a00000000000000000000000000000000000000000000000000000000081526004016126589190613ea0565b60405180910390fd5b5050565b60007f8b73c3c69bb8fe3d512ecc4cf759cc79239f7b179b0ffacaa9a75d522b39400f7f00000000000000000000000000000000000000000000000000000000000000007f000000000000000000000000000000000000000000000000000000000000000046306040516020016126e0959493929190615168565b60405160208183030381529060405280519060200120905090565b600080820361270d57600090506127ef565b6000600161271a84613447565b901c6001901b9050600181848161273457612733615067565b5b048201901c9050600181848161274d5761274c615067565b5b048201901c9050600181848161276657612765615067565b5b048201901c9050600181848161277f5761277e615067565b5b048201901c9050600181848161279857612797615067565b5b048201901c905060018184816127b1576127b0615067565b5b048201901c905060018184816127ca576127c9615067565b5b048201901c90506127eb818285816127e5576127e4615067565b5b04613528565b9150505b919050565b60008260005281602060002001905092915050565b60005b818310156128715760006128208484613541565b90508463ffffffff1661283387836127f4565b60000160009054906101000a900463ffffffff1663ffffffff16111561285b5780925061286b565b6001816128689190614ea3565b93505b5061280c565b819050949350505050565b6128868383613567565b6128936000848484612bde565b6128d2576040517f08c379a00000000000000000000000000000000000000000000000000000000081526004016128c990615047565b60405180910390fd5b505050565b60006128e282610d4a565b9050919050565b8173ffffffffffffffffffffffffffffffffffffffff168373ffffffffffffffffffffffffffffffffffffffff16141580156129255750600081115b15612b6557600073ffffffffffffffffffffffffffffffffffffffff168373ffffffffffffffffffffffffffffffffffffffff1614612a47576000806129b4600960008773ffffffffffffffffffffffffffffffffffffffff1673ffffffffffffffffffffffffffffffffffffffff1681526020019081526020016000206137846129af8661379a565b613805565b7bffffffffffffffffffffffffffffffffffffffffffffffffffffffff1691507bffffffffffffffffffffffffffffffffffffffffffffffffffffffff1691508473ffffffffffffffffffffffffffffffffffffffff167fdec2bacdd2f05b59de34da9b523dff8be42e5e38e818c82fdb0bae774387a7248383604051612a3c9291906151bb565b60405180910390a250505b600073ffffffffffffffffffffffffffffffffffffffff168273ffffffffffffffffffffffffffffffffffffffff1614612b6457600080612ad1600960008673ffffffffffffffffffffffffffffffffffffffff1673ffffffffffffffffffffffffffffffffffffffff168152602001908152602001600020613855612acc8661379a565b613805565b7bffffffffffffffffffffffffffffffffffffffffffffffffffffffff1691507bffffffffffffffffffffffffffffffffffffffffffffffffffffffff1691508373ffffffffffffffffffffffffffffffffffffffff167fdec2bacdd2f05b59de34da9b523dff8be42e5e38e818c82fdb0bae774387a7248383604051612b599291906151bb565b60405180910390a250505b5b505050565b60606000612b778361386b565b90506000602067ffffffffffffffff811115612b9657612b95614393565b5b6040519080825280601f01601f191660200182016040528015612bc85781602001600182028036833780820191505090505b5090508181528360208201528092505050919050565b6000612bff8473ffffffffffffffffffffffffffffffffffffffff166138bb565b15612d58578373ffffffffffffffffffffffffffffffffffffffff1663150b7a02612c286114f5565b8786866040518563ffffffff1660e01b8152600401612c4a9493929190615239565b6020604051808303816000875af1925050508015612c8657506040513d601f19601f82011682018060405250810190612c83919061529a565b60015b612d08573d8060008114612cb6576040519150601f19603f3d011682016040523d82523d6000602084013e612cbb565b606091505b506000815103612d00576040517f08c379a0000000000000000000000000000000000000000000000000000000008152600401612cf790615047565b60405180910390fd5b805181602001fd5b63150b7a0260e01b7bffffffffffffffffffffffffffffffffffffffffffffffffffffffff1916817bffffffffffffffffffffffffffffffffffffffffffffffffffffffff191614915050612d5d565b600190505b949350505050565b60006040517f190100000000000000000000000000000000000000000000000000000000000081528360028201528260228201526042812091505092915050565b6000807f7fffffffffffffffffffffffffffffff5d576e7357a4501ddfe92f46681b20a08360001c1115612de1576000600391509150612e7f565b600060018787878760405160008152602001604052604051612e0694939291906152d6565b6020604051602081039080840390855afa158015612e28573d6000803e3d6000fd5b505050602060405103519050600073ffffffffffffffffffffffffffffffffffffffff168173ffffffffffffffffffffffffffffffffffffffff1603612e7657600060019250925050612e7f565b80600092509250505b94509492505050565b60006004811115612e9c57612e9b61531b565b5b816004811115612eaf57612eae61531b565b5b0315612feb5760016004811115612ec957612ec861531b565b5b816004811115612edc57612edb61531b565b5b03612f1c576040517f08c379a0000000000000000000000000000000000000000000000000000000008152600401612f1390615396565b60405180910390fd5b60026004811115612f3057612f2f61531b565b5b816004811115612f4357612f4261531b565b5b03612f83576040517f08c379a0000000000000000000000000000000000000000000000000000000008152600401612f7a90615402565b60405180910390fd5b60036004811115612f9757612f9661531b565b5b816004811115612faa57612fa961531b565b5b03612fea576040517f08c379a0000000000000000000000000000000000000000000000000000000008152600401612fe190615494565b60405180910390fd5b5b50565b6001816000016000828254019250508190555050565b600080600090507a184f03e93ff9f4daa797ed6e38ed64bf6a1f0100000000000000008310613062577a184f03e93ff9f4daa797ed6e38ed64bf6a1f010000000000000000838161305857613057615067565b5b0492506040810190505b6d04ee2d6d415b85acef8100000000831061309f576d04ee2d6d415b85acef8100000000838161309557613094615067565b5b0492506020810190505b662386f26fc1000083106130ce57662386f26fc1000083816130c4576130c3615067565b5b0492506010810190505b6305f5e10083106130f7576305f5e10083816130ed576130ec615067565b5b0492506008810190505b612710831061311c57612710838161311257613111615067565b5b0492506004810190505b6064831061313f576064838161313557613134615067565b5b0492506002810190505b600a831061314e576001810190505b80915050919050565b60007f01ffc9a7000000000000000000000000000000000000000000000000000000007bffffffffffffffffffffffffffffffffffffffffffffffffffffffff1916827bffffffffffffffffffffffffffffffffffffffffffffffffffffffff1916149050919050565b6131cc8484836138de565b6131d884848484613998565b50505050565b60606132048273ffffffffffffffffffffffffffffffffffffffff16601460ff1661320b565b9050919050565b60606000600283600261321e91906154b4565b6132289190614ea3565b67ffffffffffffffff81111561324157613240614393565b5b6040519080825280601f01601f1916602001820160405280156132735781602001600182028036833780820191505090505b5090507f3000000000000000000000000000000000000000000000000000000000000000816000815181106132ab576132aa6154f6565b5b60200101907effffffffffffffffffffffffffffffffffffffffffffffffffffffffffffff1916908160001a9053507f78000000000000000000000000000000000000000000000000000000000000008160018151811061330f5761330e6154f6565b5b60200101907effffffffffffffffffffffffffffffffffffffffffffffffffffffffffffff1916908160001a9053506000600184600261334f91906154b4565b6133599190614ea3565b90505b60018111156133f9577f3031323334353637383961626364656600000000000000000000000000000000600f86166010811061339b5761339a6154f6565b5b1a60f81b8282815181106133b2576133b16154f6565b5b60200101907effffffffffffffffffffffffffffffffffffffffffffffffffffffffffffff1916908160001a905350600485901c9450806133f290615525565b905061335c565b506000841461343d576040517f08c379a00000000000000000000000000000000000000000000000000000000081526004016134349061559a565b60405180910390fd5b8091505092915050565b600080600090506000608084901c111561346957608083901c92506080810190505b6000604084901c111561348457604083901c92506040810190505b6000602084901c111561349f57602083901c92506020810190505b6000601084901c11156134ba57601083901c92506010810190505b6000600884901c11156134d557600883901c92506008810190505b6000600484901c11156134f057600483901c92506004810190505b6000600284901c111561350b57600283901c92506002810190505b6000600184901c111561351f576001810190505b80915050919050565b60008183106135375781613539565b825b905092915050565b6000600282841861355291906155ba565b82841661355f9190614ea3565b905092915050565b600073ffffffffffffffffffffffffffffffffffffffff168273ffffffffffffffffffffffffffffffffffffffff16036135d6576040517f08c379a00000000000000000000000000000000000000000000000000000000081526004016135cd90615637565b60405180910390fd5b6135df81612587565b1561361f576040517f08c379a0000000000000000000000000000000000000000000000000000000008152600401613616906156a3565b60405180910390fd5b61362d6000838360016125c8565b61363681612587565b15613676576040517f08c379a000000000000000000000000000000000000000000000000000000000815260040161366d906156a3565b60405180910390fd5b6001600360008473ffffffffffffffffffffffffffffffffffffffff1673ffffffffffffffffffffffffffffffffffffffff16815260200190815260200160002060008282540192505081905550816002600083815260200190815260200160002060006101000a81548173ffffffffffffffffffffffffffffffffffffffff021916908373ffffffffffffffffffffffffffffffffffffffff160217905550808273ffffffffffffffffffffffffffffffffffffffff16600073ffffffffffffffffffffffffffffffffffffffff167fddf252ad1be2c89b69c2b068fc378daa952ba7f163c4a11628f55a4df523b3ef60405160405180910390a46137806000838360016125ce565b5050565b6000818361379291906156eb565b905092915050565b60007bffffffffffffffffffffffffffffffffffffffffffffffffffffffff80168211156137fd576040517f08c379a00000000000000000000000000000000000000000000000000000000081526004016137f4906157ad565b60405180910390fd5b819050919050565b600080613849613823613816611052565b65ffffffffffff16611bd2565b61383961382f886120eb565b868863ffffffff16565b8761399e9092919063ffffffff16565b91509150935093915050565b6000818361386391906157cd565b905092915050565b60008060ff8360001c169050601f8111156138b2576040517fb3512b0c00000000000000000000000000000000000000000000000000000000815260040160405180910390fd5b80915050919050565b6000808273ffffffffffffffffffffffffffffffffffffffff163b119050919050565b600073ffffffffffffffffffffffffffffffffffffffff168373ffffffffffffffffffffffffffffffffffffffff160361392b57613928600a6138556139238461379a565b613805565b50505b600073ffffffffffffffffffffffffffffffffffffffff168273ffffffffffffffffffffffffffffffffffffffff160361397857613975600a6137846139708461379a565b613805565b50505b61399361398484610c41565b61398d84610c41565b836128e9565b505050565b50505050565b6000806139af8560000185856139bb565b91509150935093915050565b6000806000858054905090506000811115613c515760006139e8876001846139e39190614e6f565b6127f4565b6040518060400160405290816000820160009054906101000a900463ffffffff1663ffffffff1663ffffffff1681526020016000820160049054906101000a90047bffffffffffffffffffffffffffffffffffffffffffffffffffffffff167bffffffffffffffffffffffffffffffffffffffffffffffffffffffff167bffffffffffffffffffffffffffffffffffffffffffffffffffffffff168152505090508563ffffffff16816000015163ffffffff161115613adc576040517f08c379a0000000000000000000000000000000000000000000000000000000008152600401613ad390615869565b60405180910390fd5b8563ffffffff16816000015163ffffffff1603613b605784613b0a88600185613b059190614e6f565b6127f4565b60000160046101000a8154817bffffffffffffffffffffffffffffffffffffffffffffffffffffffff02191690837bffffffffffffffffffffffffffffffffffffffffffffffffffffffff160217905550613c40565b8660405180604001604052808863ffffffff168152602001877bffffffffffffffffffffffffffffffffffffffffffffffffffffffff168152509080600181540180825580915050600190039060005260206000200160009091909190915060008201518160000160006101000a81548163ffffffff021916908363ffffffff16021790555060208201518160000160046101000a8154817bffffffffffffffffffffffffffffffffffffffffffffffffffffffff02191690837bffffffffffffffffffffffffffffffffffffffffffffffffffffffff16021790555050505b806020015185935093505050613d39565b8560405180604001604052808763ffffffff168152602001867bffffffffffffffffffffffffffffffffffffffffffffffffffffffff168152509080600181540180825580915050600190039060005260206000200160009091909190915060008201518160000160006101000a81548163ffffffff021916908363ffffffff16021790555060208201518160000160046101000a8154817bffffffffffffffffffffffffffffffffffffffffffffffffffffffff02191690837bffffffffffffffffffffffffffffffffffffffffffffffffffffffff160217905550505060008492509250505b935093915050565b6000604051905090565b600080fd5b600080fd5b60007fffffffff0000000000000000000000000000000000000000000000000000000082169050919050565b613d8a81613d55565b8114613d9557600080fd5b50565b600081359050613da781613d81565b92915050565b600060208284031215613dc357613dc2613d4b565b5b6000613dd184828501613d98565b91505092915050565b60008115159050919050565b613def81613dda565b82525050565b6000602082019050613e0a6000830184613de6565b92915050565b600081519050919050565b600082825260208201905092915050565b60005b83811015613e4a578082015181840152602081019050613e2f565b60008484015250505050565b6000601f19601f8301169050919050565b6000613e7282613e10565b613e7c8185613e1b565b9350613e8c818560208601613e2c565b613e9581613e56565b840191505092915050565b60006020820190508181036000830152613eba8184613e67565b905092915050565b6000819050919050565b613ed581613ec2565b8114613ee057600080fd5b50565b600081359050613ef281613ecc565b92915050565b600060208284031215613f0e57613f0d613d4b565b5b6000613f1c84828501613ee3565b91505092915050565b600073ffffffffffffffffffffffffffffffffffffffff82169050919050565b6000613f5082613f25565b9050919050565b613f6081613f45565b82525050565b6000602082019050613f7b6000830184613f57565b92915050565b613f8a81613f45565b8114613f9557600080fd5b50565b600081359050613fa781613f81565b92915050565b60008060408385031215613fc457613fc3613d4b565b5b6000613fd285828601613f98565b9250506020613fe385828601613ee3565b9150509250929050565b60008060006060848603121561400657614005613d4b565b5b600061401486828701613f98565b935050602061402586828701613f98565b925050604061403686828701613ee3565b9150509250925092565b6000819050919050565b61405381614040565b811461405e57600080fd5b50565b6000813590506140708161404a565b92915050565b60006020828403121561408c5761408b613d4b565b5b600061409a84828501614061565b91505092915050565b6140ac81614040565b82525050565b60006020820190506140c760008301846140a3565b92915050565b600080604083850312156140e4576140e3613d4b565b5b60006140f285828601614061565b925050602061410385828601613f98565b9150509250929050565b61411681613ec2565b82525050565b6000602082019050614131600083018461410d565b92915050565b60006020828403121561414d5761414c613d4b565b5b600061415b84828501613f98565b91505092915050565b60007fff0000000000000000000000000000000000000000000000000000000000000082169050919050565b61419981614164565b82525050565b600081519050919050565b600082825260208201905092915050565b6000819050602082019050919050565b6141d481613ec2565b82525050565b60006141e683836141cb565b60208301905092915050565b6000602082019050919050565b600061420a8261419f565b61421481856141aa565b935061421f836141bb565b8060005b8381101561425057815161423788826141da565b9750614242836141f2565b925050600181019050614223565b5085935050505092915050565b600060e082019050614272600083018a614190565b81810360208301526142848189613e67565b905081810360408301526142988188613e67565b90506142a7606083018761410d565b6142b46080830186613f57565b6142c160a08301856140a3565b81810360c08301526142d381846141ff565b905098975050505050505050565b600065ffffffffffff82169050919050565b6142fc816142e1565b82525050565b600060208201905061431760008301846142f3565b92915050565b61432681613dda565b811461433157600080fd5b50565b6000813590506143438161431d565b92915050565b600080604083850312156143605761435f613d4b565b5b600061436e85828601613f98565b925050602061437f85828601614334565b9150509250929050565b600080fd5b600080fd5b7f4e487b7100000000000000000000000000000000000000000000000000000000600052604160045260246000fd5b6143cb82613e56565b810181811067ffffffffffffffff821117156143ea576143e9614393565b5b80604052505050565b60006143fd613d41565b905061440982826143c2565b919050565b600067ffffffffffffffff82111561442957614428614393565b5b61443282613e56565b9050602081019050919050565b82818337600083830152505050565b600061446161445c8461440e565b6143f3565b90508281526020810184848401111561447d5761447c61438e565b5b61448884828561443f565b509392505050565b600082601f8301126144a5576144a4614389565b5b81356144b584826020860161444e565b91505092915050565b600080600080608085870312156144d8576144d7613d4b565b5b60006144e687828801613f98565b94505060206144f787828801613f98565b935050604061450887828801613ee3565b925050606085013567ffffffffffffffff81111561452957614528613d50565b5b61453587828801614490565b91505092959194509250565b600060ff82169050919050565b61455781614541565b811461456257600080fd5b50565b6000813590506145748161454e565b92915050565b60008060008060008060c0878903121561459757614596613d4b565b5b60006145a589828a01613f98565b96505060206145b689828a01613ee3565b95505060406145c789828a01613ee3565b94505060606145d889828a01614565565b93505060806145e989828a01614061565b92505060a06145fa89828a01614061565b9150509295509295509295565b6000806040838503121561461e5761461d613d4b565b5b600061462c85828601613f98565b925050602061463d85828601613f98565b9150509250929050565b7f4e487b7100000000000000000000000000000000000000000000000000000000600052602260045260246000fd5b6000600282049050600182168061468e57607f821691505b6020821081036146a1576146a0614647565b5b50919050565b7f4552433732313a20617070726f76616c20746f2063757272656e74206f776e6560008201527f7200000000000000000000000000000000000000000000000000000000000000602082015250565b6000614703602183613e1b565b915061470e826146a7565b604082019050919050565b60006020820190508181036000830152614732816146f6565b9050919050565b7f4552433732313a20617070726f76652063616c6c6572206973206e6f7420746f60008201527f6b656e206f776e6572206f7220617070726f76656420666f7220616c6c000000602082015250565b6000614795603d83613e1b565b91506147a082614739565b604082019050919050565b600060208201905081810360008301526147c481614788565b9050919050565b7f4552433732313a2063616c6c6572206973206e6f7420746f6b656e206f776e6560008201527f72206f7220617070726f76656400000000000000000000000000000000000000602082015250565b6000614827602d83613e1b565b9150614832826147cb565b604082019050919050565b600060208201905081810360008301526148568161481a565b9050919050565b7f416363657373436f6e74726f6c3a2063616e206f6e6c792072656e6f756e636560008201527f20726f6c657320666f722073656c660000000000000000000000000000000000602082015250565b60006148b9602f83613e1b565b91506148c48261485d565b604082019050919050565b600060208201905081810360008301526148e8816148ac565b9050919050565b7f566f7465733a20667574757265206c6f6f6b7570000000000000000000000000600082015250565b6000614925601483613e1b565b9150614930826148ef565b602082019050919050565b6000602082019050818103600083015261495481614918565b9050919050565b7f4e487b7100000000000000000000000000000000000000000000000000000000600052601160045260246000fd5b600061499582613ec2565b91507fffffffffffffffffffffffffffffffffffffffffffffffffffffffffffffffff82036149c7576149c661495b565b5b600182019050919050565b7f566f7465733a2062726f6b656e20636c6f636b206d6f64650000000000000000600082015250565b6000614a08601883613e1b565b9150614a13826149d2565b602082019050919050565b60006020820190508181036000830152614a37816149fb565b9050919050565b7f4552433732313a20696e76616c696420746f6b656e2049440000000000000000600082015250565b6000614a74601883613e1b565b9150614a7f82614a3e565b602082019050919050565b60006020820190508181036000830152614aa381614a67565b9050919050565b7f4552433732313a2061646472657373207a65726f206973206e6f74206120766160008201527f6c6964206f776e65720000000000000000000000000000000000000000000000602082015250565b6000614b06602983613e1b565b9150614b1182614aaa565b604082019050919050565b60006020820190508181036000830152614b3581614af9565b9050919050565b7f566f7465733a207369676e617475726520657870697265640000000000000000600082015250565b6000614b72601883613e1b565b9150614b7d82614b3c565b602082019050919050565b60006020820190508181036000830152614ba181614b65565b9050919050565b6000608082019050614bbd60008301876140a3565b614bca6020830186613f57565b614bd7604083018561410d565b614be4606083018461410d565b95945050505050565b7f566f7465733a20696e76616c6964206e6f6e6365000000000000000000000000600082015250565b6000614c23601483613e1b565b9150614c2e82614bed565b602082019050919050565b60006020820190508181036000830152614c5281614c16565b9050919050565b600081905092915050565b6000614c6f82613e10565b614c798185614c59565b9350614c89818560208601613e2c565b80840191505092915050565b6000614ca18285614c64565b9150614cad8284614c64565b91508190509392505050565b7f4552433732313a207472616e736665722066726f6d20696e636f72726563742060008201527f6f776e6572000000000000000000000000000000000000000000000000000000602082015250565b6000614d15602583613e1b565b9150614d2082614cb9565b604082019050919050565b60006020820190508181036000830152614d4481614d08565b9050919050565b7f4552433732313a207472616e7366657220746f20746865207a65726f2061646460008201527f7265737300000000000000000000000000000000000000000000000000000000602082015250565b6000614da7602483613e1b565b9150614db282614d4b565b604082019050919050565b60006020820190508181036000830152614dd681614d9a565b9050919050565b7f53616665436173743a2076616c756520646f65736e27742066697420696e203360008201527f3220626974730000000000000000000000000000000000000000000000000000602082015250565b6000614e39602683613e1b565b9150614e4482614ddd565b604082019050919050565b60006020820190508181036000830152614e6881614e2c565b9050919050565b6000614e7a82613ec2565b9150614e8583613ec2565b9250828203905081811115614e9d57614e9c61495b565b5b92915050565b6000614eae82613ec2565b9150614eb983613ec2565b9250828201905080821115614ed157614ed061495b565b5b92915050565b7f53616665436173743a2076616c756520646f65736e27742066697420696e203460008201527f3820626974730000000000000000000000000000000000000000000000000000602082015250565b6000614f33602683613e1b565b9150614f3e82614ed7565b604082019050919050565b60006020820190508181036000830152614f6281614f26565b9050919050565b7f4552433732313a20617070726f766520746f2063616c6c657200000000000000600082015250565b6000614f9f601983613e1b565b9150614faa82614f69565b602082019050919050565b60006020820190508181036000830152614fce81614f92565b9050919050565b7f4552433732313a207472616e7366657220746f206e6f6e20455243373231526560008201527f63656976657220696d706c656d656e7465720000000000000000000000000000602082015250565b6000615031603283613e1b565b915061503c82614fd5565b604082019050919050565b6000602082019050818103600083015261506081615024565b9050919050565b7f4e487b7100000000000000000000000000000000000000000000000000000000600052601260045260246000fd5b7f416363657373436f6e74726f6c3a206163636f756e7420000000000000000000600082015250565b60006150cc601783614c59565b91506150d782615096565b601782019050919050565b7f206973206d697373696e6720726f6c6520000000000000000000000000000000600082015250565b6000615118601183614c59565b9150615123826150e2565b601182019050919050565b6000615139826150bf565b91506151458285614c64565b91506151508261510b565b915061515c8284614c64565b91508190509392505050565b600060a08201905061517d60008301886140a3565b61518a60208301876140a3565b61519760408301866140a3565b6151a4606083018561410d565b6151b16080830184613f57565b9695505050505050565b60006040820190506151d0600083018561410d565b6151dd602083018461410d565b9392505050565b600081519050919050565b600082825260208201905092915050565b600061520b826151e4565b61521581856151ef565b9350615225818560208601613e2c565b61522e81613e56565b840191505092915050565b600060808201905061524e6000830187613f57565b61525b6020830186613f57565b615268604083018561410d565b818103606083015261527a8184615200565b905095945050505050565b60008151905061529481613d81565b92915050565b6000602082840312156152b0576152af613d4b565b5b60006152be84828501615285565b91505092915050565b6152d081614541565b82525050565b60006080820190506152eb60008301876140a3565b6152f860208301866152c7565b61530560408301856140a3565b61531260608301846140a3565b95945050505050565b7f4e487b7100000000000000000000000000000000000000000000000000000000600052602160045260246000fd5b7f45434453413a20696e76616c6964207369676e61747572650000000000000000600082015250565b6000615380601883613e1b565b915061538b8261534a565b602082019050919050565b600060208201905081810360008301526153af81615373565b9050919050565b7f45434453413a20696e76616c6964207369676e6174757265206c656e67746800600082015250565b60006153ec601f83613e1b565b91506153f7826153b6565b602082019050919050565b6000602082019050818103600083015261541b816153df565b9050919050565b7f45434453413a20696e76616c6964207369676e6174757265202773272076616c60008201527f7565000000000000000000000000000000000000000000000000000000000000602082015250565b600061547e602283613e1b565b915061548982615422565b604082019050919050565b600060208201905081810360008301526154ad81615471565b9050919050565b60006154bf82613ec2565b91506154ca83613ec2565b92508282026154d881613ec2565b915082820484148315176154ef576154ee61495b565b5b5092915050565b7f4e487b7100000000000000000000000000000000000000000000000000000000600052603260045260246000fd5b600061553082613ec2565b9150600082036155435761554261495b565b5b600182039050919050565b7f537472696e67733a20686578206c656e67746820696e73756666696369656e74600082015250565b6000615584602083613e1b565b915061558f8261554e565b602082019050919050565b600060208201905081810360008301526155b381615577565b9050919050565b60006155c582613ec2565b91506155d083613ec2565b9250826155e0576155df615067565b5b828204905092915050565b7f4552433732313a206d696e7420746f20746865207a65726f2061646472657373600082015250565b6000615621602083613e1b565b915061562c826155eb565b602082019050919050565b6000602082019050818103600083015261565081615614565b9050919050565b7f4552433732313a20746f6b656e20616c7265616479206d696e74656400000000600082015250565b600061568d601c83613e1b565b915061569882615657565b602082019050919050565b600060208201905081810360008301526156bc81615680565b9050919050565b60007bffffffffffffffffffffffffffffffffffffffffffffffffffffffff82169050919050565b60006156f6826156c3565b9150615701836156c3565b925082820390507bffffffffffffffffffffffffffffffffffffffffffffffffffffffff8111156157355761573461495b565b5b92915050565b7f53616665436173743a2076616c756520646f65736e27742066697420696e203260008201527f3234206269747300000000000000000000000000000000000000000000000000602082015250565b6000615797602783613e1b565b91506157a28261573b565b604082019050919050565b600060208201905081810360008301526157c68161578a565b9050919050565b60006157d8826156c3565b91506157e3836156c3565b925082820190507bffffffffffffffffffffffffffffffffffffffffffffffffffffffff8111156158175761581661495b565b5b92915050565b7f436865636b706f696e743a2064656372656173696e67206b6579730000000000600082015250565b6000615853601b83613e1b565b915061585e8261581d565b602082019050919050565b6000602082019050818103600083015261588281615846565b905091905056fea264697066735822122046d6a9af449684de3ed42eb80e260723ebfae191251386c3464ca313238fc94964736f6c63430008130033",
  "linkReferences": {},
  "deployedLinkReferences": {}
}