{
  "_format": "hh-sol-artifact-1",
  "contractName": "TokenizedBallot",
  "sourceName": "contracts/TokenizedBallot.sol",
  "abi": [
    {
      "inputs": [
        {
          "internalType": "bytes32[]",
          "name": "_proposalNames",
          "type": "bytes32[]"
        },
        {
          "internalType": "address",
          "name": "_tokenContract",
          "type": "address"
        }
      ],
      "stateMutability": "nonpayable",
      "type": "constructor"
    },
    {
      "inputs": [
        {
          "internalType": "uint256",
          "name": "",
          "type": "uint256"
        }
      ],
      "name": "proposals",
      "outputs": [
        {
          "internalType": "bytes32",
          "name": "name",
          "type": "bytes32"
        },
        {
          "internalType": "uint256",
          "name": "voteCount",
          "type": "uint256"
        }
      ],
      "stateMutability": "view",
      "type": "function"
    },
    {
      "inputs": [],
      "name": "tokenContract",
      "outputs": [
        {
          "internalType": "contract IMyToken",
          "name": "",
          "type": "address"
        }
      ],
      "stateMutability": "view",
      "type": "function"
    },
    {
      "inputs": [
        {
          "internalType": "uint256",
          "name": "proposal",
          "type": "uint256"
        },
        {
          "internalType": "uint256",
          "name": "amount",
          "type": "uint256"
        }
      ],
      "name": "vote",
      "outputs": [],
      "stateMutability": "nonpayable",
      "type": "function"
    },
    {
      "inputs": [
        {
          "internalType": "address",
          "name": "account",
          "type": "address"
        }
      ],
      "name": "votingPower",
      "outputs": [
        {
          "internalType": "uint256",
          "name": "",
          "type": "uint256"
        }
      ],
      "stateMutability": "view",
      "type": "function"
    },
    {
      "inputs": [],
      "name": "winnerName",
      "outputs": [
        {
          "internalType": "bytes32",
          "name": "winnerName_",
          "type": "bytes32"
        }
      ],
      "stateMutability": "view",
      "type": "function"
    },
    {
      "inputs": [],
      "name": "winningProposal",
      "outputs": [
        {
          "internalType": "uint256",
          "name": "winningProposal_",
          "type": "uint256"
        }
      ],
      "stateMutability": "view",
      "type": "function"
    }
  ],
  "bytecode": "0x608060405234801561001057600080fd5b5060405161074a38038061074a83398101604081905261002f91610118565b600080546001600160a01b0319166001600160a01b0383161781555b82518110156100de57600180548082018255600091909152835160039091027fb10e2d527612073b26eecdfd717e6a320cf44b4afac2b0732d9fcbe2b7fa0cf6019084908390811061009f5761009f6101e7565b60209081029190910181015182556000600183018190553381526002909201905260409020805460ff19169055806100d6816101fd565b91505061004b565b505050610224565b634e487b7160e01b600052604160045260246000fd5b80516001600160a01b038116811461011357600080fd5b919050565b6000806040838503121561012b57600080fd5b82516001600160401b038082111561014257600080fd5b818501915085601f83011261015657600080fd5b815160208282111561016a5761016a6100e6565b8160051b604051601f19603f8301168101818110868211171561018f5761018f6100e6565b6040529283528183019350848101820192898411156101ad57600080fd5b948201945b838610156101cb578551855294820194938201936101b2565b96506101da90508782016100fc565b9450505050509250929050565b634e487b7160e01b600052603260045260246000fd5b60006001820161021d57634e487b7160e01b600052601160045260246000fd5b5060010190565b610517806102336000396000f3fe608060405234801561001057600080fd5b50600436106100625760003560e01c8063013cf08b1461006757806355a373d614610094578063609ff1bd146100b4578063b384abef146100ca578063c07473f6146100df578063e2ba53f0146100f2575b600080fd5b61007a6100753660046103f1565b6100fa565b604080519283526020830191909152015b60405180910390f35b6000546100a7906001600160a01b031681565b60405161008b919061040a565b6100bc610128565b60405190815260200161008b565b6100dd6100d836600461041e565b6101a5565b005b6100bc6100ed366004610440565b610346565b6100bc6103be565b6001818154811061010a57600080fd5b60009182526020909120600390910201805460019091015490915082565b600080805b6001548110156101a057816001828154811061014b5761014b610470565b906000526020600020906003020160010154111561018e576001818154811061017657610176610470565b90600052602060002090600302016001015491508092505b806101988161049c565b91505061012d565b505090565b806101af33610346565b101561021c5760405162461bcd60e51b815260206004820152603160248201527f546f6b656e697a656442616c6c6f743a20747279696e6720746f20766f7465206044820152701b5bdc99481d1a185b88185b1b1bddd959607a1b60648201526084015b60405180910390fd5b6001828154811061022f5761022f610470565b600091825260208083203384526002600390930201919091019052604090205460ff16156102c45760405162461bcd60e51b815260206004820152603c60248201527f546f6b656e697a656442616c6c6f743a20616464726573732068617320616c7260448201527b1958591e481d9bdd195908199bdc881d1a1a5cc81c1c9bdc1bdcd85b60221b6064820152608401610213565b60018083815481106102d8576102d8610470565b60009182526020808320338452600392909202909101600201905260409020805460ff1916911515919091179055600180548291908490811061031d5761031d610470565b9060005260206000209060030201600101600082825461033d91906104b5565b90915550505050565b600080546040516309ab24eb60e41b81526001600160a01b0390911690639ab24eb09061037790859060040161040a565b602060405180830381865afa158015610394573d6000803e3d6000fd5b505050506040513d601f19601f820116820180604052508101906103b891906104c8565b92915050565b600060016103ca610128565b815481106103da576103da610470565b906000526020600020906003020160000154905090565b60006020828403121561040357600080fd5b5035919050565b6001600160a01b0391909116815260200190565b6000806040838503121561043157600080fd5b50508035926020909101359150565b60006020828403121561045257600080fd5b81356001600160a01b038116811461046957600080fd5b9392505050565b634e487b7160e01b600052603260045260246000fd5b634e487b7160e01b600052601160045260246000fd5b6000600182016104ae576104ae610486565b5060010190565b808201808211156103b8576103b8610486565b6000602082840312156104da57600080fd5b505191905056fea264697066735822122033cbb844f712b0c7974b9aef1759c494d51f183d96002598e6155fedda67155164736f6c63430008130033",
  "linkReferences": {},
  "deployedLinkReferences": {}
}